:4000000000100020110000002D0300002D03000010B500F0ABF9C04670B5164C23688022D20213432360182000F04AFA2268124B13402360114A124B1A601022114B1A60FC
:400040001032114B1A6082221206104B1A60002525600F4A0F4B1A600F4A104B1A601049092000F0D3F9092000F0C4F90D4B1D6070BDC04600010B40FFFFFBFF06000080EC
:4000800004010B401C0202403002024008010B4007000080000002403300008040000240D10600000C020B4070B572B600240FE03C486200131959000B00411889881A5AE6
:4000C000C31858880004104300F00CF90134E4B2022CEDD9002411E0324EA2001319590071188D8AC88A000428430A8B498B09041143802200F0FCF80134E4B2002CEBD01B
:40010000284920312848343000F0D2F880225200264B1A80FF3A264B1A70C0229202254B1A60EE221202244B1A6099231B04234A1360C0218904224A11602249224A116081
:4001400080210905214A1160214A1360214A136021490B783C22934314221343DBB20B701E4A117816230B43DBB2137010221C4B1A60C022D2011B4B1A60802212021A4B38
:400180001A608022194B1A600823194A1360194A1360D8221201184B1A60FFF73DFF00F0BBF870BDEC190000EC1B000000600F4002600F40000001400C00014000500F40E9
:4001C00008500F400400990010500F4014500F4020500F4030500F4001700F4000700F400000044008000440080104401801044000020440180204400803044010B5064C08
:400200002378002B07D1054B002B02D0044800E000BF0123237010BD4801002000000000CC190000084B10B5002B03D00749084800E000BF07480368002B00D110BD064BED
:40024000002BFBD09847F9E7000000004C010020CC190000C00000200000000010B58EB062B600F017FB00F025FB00F0BDFB022000F02AFB002000F03BFB04000100002020
:4002800000F04CFB084900F0A3FD00F0B5FE03002200064901A800F075FF01A800F0C0FB322000F0EBF8E2E700007A44D0190000F0B50025002711E0BB00C658F3B2FF2298
:4002C000964308E06A008A181478A419527822700135013BDBB2002BF4D10137072FEBD9F0BDC04610B50A00002100F042FF10BD10B500F035FF10BD064B1B68002803D045
:4003000080221206134301E05B005B08014A13607047C04680031A4010B50822024B1A600120FFF7E9FF10BD00031A4010B500F0EBFE03680C2B00D1FEE7FEE710B5030034
:40034000084A1068C318084A9A1A802A02DC054A136005E000F0D8FE0C2303600120404210BDC046C4000020A001002070B50F4E0F4D13E029686B68AC68002202E001C919
:4003800001C30432A242FAD1E868002202E0002102C304328242FAD11035013E002EE9D100F0B8FEFFF75AFFFEE7C046010000000C1E000010B500230AE0032B03D89A00A9
:4003C0000949505800E009489900094A885001332F2BF2D9FFF768FE8022D205116801230B43136010BDC046000000002D030000000000201F2318401E3B8340014A1360EB
:400400007047C04600E100E001BE704770B504000D001F2802D90020FFF7F6FF1034A40080239B059C4664442068256070BDC04670B504000E00032902D90020FFF7E4FF39
:400440001F2C02D90020FFF7DFFF03252540ED00063500F00FFBA408A400074B9C46644421680323AB4099430B003100A9401943216000F003FB70BD00E400E010B5040067
:4004800006E0084B586800F0EBFA074B9C46644480231B029C42F4D8024B9868604300F0DFFA10BDC80000200080FFFF10B5034B1B7B584300F0D4FA10BDC046C80000207F
:4004C000F0B557464E46C0B483B0040000F0D2FA0190E71E2D2F74D83F4B1B78DBB29C4208D83E4B1B78DBB29A463D4B1B78DBB2994631E03B4B1B78DBB29C4208D83A4B0F
:400500001B78DBB29A46394B1B78DBB2994623E0374B1B78DBB29C4208D8364B1B78DBB29A46354B1B78DBB2994615E0334B1B78DBB29C4208D8324B1B78DBB29A46314B8B
:400540001B78DBB2994607E02F4B1B78DBB29A462E4B1B78DBB299462D4BDE5D2F2E09D92A2C07D919222B4B1A60052000F078FA192503E0274B1D683F231D40B54206D91C
:40058000234BDA5D234B1A60052000F069FA1F4B9C4664442378DBB21F4A13601F4B52461A601F4B4A461A600520FFF77FFFB5420AD2174BDA5D174B1A60052000F050FA0E
:4005C00002E00020FFF720FF019800F057FA03B00CBC91469A46F0BDC0F1FF0FC1F1FF0FC2F1FF0FC3F1FF0FC4F1FF0FC5F1FF0FC6F1FF0FC7F1FF0FC8F1FF0FC9F1FF0F88
:40060000CAF1FF0FCBF1FF0FCCF1FF0FCDF1FF0FC01C00002CFF0B4028FF0B401CFF0B4020FF0B40034B1868C0231B02184000D00120704700010B4010B500F01BFA044ACA
:400640001368C02109020B43136000F017FA10BD00010B4010B500F00DFA08490A68084B1A408024E40122430A600A6813408022120213430B6000F001FA10BD00010B4074
:40068000FF3FFFFF70B5050000F0F4F90400FFF7C9FF002803D0FFF7DDFF012100E0002108482840084A1568084B2B40184310601368012901D1FFF7BFFF200000F0DEF923
:4006C00070BDC0460404040010020B40FBFBFBFF10B5244B1B685B0715D5234B1B685B070ED5224BD969042001401F4C22688A432260DA698243DA611B69002B00D098473C
:400700000420FFF7BFFF174B1B685B0518D5164B1B685B0510D5154BD9698022D2001140114802688A430260D969114A0A40DA615B69002B00D098478020C000FFF7A2FF76
:40074000084B1B685B030CD5074B1B685B0304D5064B9B69002B00D098478020C002FFF791FF10BD10020B40DC00002064010020FFFBFFFF10B503210E20FFF759FE2349CE
:400780000E20FFF743FE0122214B1A60214B1B68002B01DA204900E02049214A13680B431360204A204B1A60204A214B1A600023204A1360204A21490A6021490A60214962
:4007C0000A688020400202430A601F4A13601F4A136001331E4A136002211E4A11601E4908681E4A024013430B6000230BE09A001B495018002101605C001A4821521A4868
:400800001A4950500133002BF1D010BD6509000020001A4080031A40C0021051C002005100001A408C00008004001A400000FF0718001A401C001A400400040010001A40A9
:4008400014001A4000031A4028021A4038021A4018021A40000F1A4030001A40FFFFFFDF80001A4094010020204E00009001002010B5074B1B68002B08DB054A1368802191
:4008800009060B4313600A20FFF710FE10BDC04600001A4010B5064B1B78002B04D1FFF769FF0122024B1A70FFF7E2FF10BDC04684010020034A1368802149020B43136048
:4008C0007047C04604001A40020083070CD0074B1B680120184001D19307F8D4002804D00122024B1A6000E00020704710021A4010B5041E02D00020FFF786FD002C07D190
:40090000A400054B9C46644420680004000C00E0002000B210BDC04680011A4070B504000D00002802D00020FFF76EFD62000A4BD05A00B2281A00B200F080FB074900F05E
:4009400047FA051CA400064BE05800F077FB011C281C00F023F970BD940100200000204190010020014B1A681A60704710021A407222074B1A70523A064B1A701A3A064B3E
:400980001A704132054B1A700022054B1A70704781000F4080000F4023000F4033000F4082000F4010B500F065F804000B4A117820230B43DBB2137009490A7810231A4350
:4009C000D2B20A70074A11780B43DBB2137000F03BF8200000F052F810BDC04691000F4090000F4092000F4010B5064B1B78002B04D1FFF7BDFF0122024B1A70FFF7D2FFB5
:400A000010BDC04685010020034B1B785B07FBD4024B18707047C04662000F4042000F4070B50500074B1B78002B05D108E0FFF7EBFF0134A4B200E00024285D0028F6D17C
:400A400070BDC04685010020034A1368802109060B4313607047C04640000240000000000230800804D0C0460138FDD1C046C046C0467047EFF3108072B6704780F3108865
:400A80007047C046002243088B4274D303098B425FD3030A8B4244D3030B8B4228D3030C8B420DD3FF22090212BA030C8B4202D31212090265D0030B8B4219D300E0090AA3
:400AC000C30B8B4201D3CB03C01A5241830B8B4201D38B03C01A5241430B8B4201D34B03C01A5241030B8B4201D30B03C01A5241C30A8B4201D3CB02C01A5241830A8B424C
:400B000001D38B02C01A5241430A8B4201D34B02C01A5241030A8B4201D30B02C01A5241CDD2C3098B4201D3CB01C01A524183098B4201D38B01C01A524143098B4201D3BF
:400B40004B01C01A524103098B4201D30B01C01A5241C3088B4201D3CB00C01A524183088B4201D38B00C01A524143088B4201D34B00C01A5241411A00D2014652411046CD
:400B80007047FFE701B5002000F006F802BDC0460029F7D076E770477047C046F0B5564644465F464D46F0B444024600C70F83B08846650A360EBA463DD0FF2E22D0002342
:400BC000EC00802599469B46ED0425437F3E43465C025800DB0F640A000E984636D0FF2830D080230021E400DB041C437F38301A0190484642460843724E800030587A4083
:400C000013008746002D44D108239946063B9B46DDE70122FF2000241A406402C305640AD2071C431443200003B03CBC90469946A246AB46F0BD002D20D104239946033B4F
:400C40009B46C4E7002C17D1022102E0002C0AD10121321A01924A4643460A435A48920082587B409746200000F030FA431F76309C4040420021BAE70321B8E7280000F07E
:400C800025FA431F9D4000237630464299469B469DE70C239946093B9B4698E780240022E403FF20B9E70024C2468B465A465346022AAED0032A7DD0012A31D10122002059
:400CC0001A400024A9E70122101A1B2856DD1A4000200024A1E78023DB031D424BD18023DB032B435C02640A3A00FF2095E76D016001854230D2019A0024013A01921B220F
:400D00000127290064006D00002901DBA84201D82D1A3C43013A002AF3D16A1E95412C4301987F300028CEDD620704D00F222240042A00D00434220103D5244A0198144096
:400D40008030FE2800DD64E70122A401640AC0B21A4062E72C00A9E72D1A1A220124CFE76B02BCD500248023DB031C436402640A4246FF2051E71C42B3D1F4E7210020223B
:400D8000C140101A8440621E94410C43620704D00F222240042A00D00434620104D5012201201A40002438E70122A401640A1A40002032E78023DB031C436402640A524668
:400DC000FF202AE7F01C0000301D0000FFFFFFF7F0B557464E4645464300E0B446028846760A1F0EC40F002F47D0FF2F25D0002380259A469946F600ED042E437F3F434619
:400E000042465D02D20F5B006D0A1B0E904640D0FF2B39D080220020ED00D20415437F3BFB1842465746591C62408C4607430F2F5CD86F49BF00C9598F46002E45D1082385
:400E40009A46063B9946DAE7424602282DD0032800D1C3E0012800D0A2E0002500260240D4B27602ED05760A2E43E407264330001CBC90469946A246F0BD002E1AD1042394
:400E80009A46033B9946BAE72A00511E8A41901CC6E70120002DC3D0280000F017F9431F76309D4043420020BAE70124FF2514400026D6E7300000F009F9431F9E4000239E
:400EC000763047429A46994699E70C239A46093B994694E780260024F603FF25C1E735004846B2E7350022004846AEE72904090C0800370C3604360C2C0C79437043674318
:400F00007443060C64183619B14203D980214902884647440004000C310409188D01681E8541890E2943350CED19AD010D43290104D5012369081D4063460D4319007F31CA
:400F4000002925DD680704D00F202840042800D00435280103D5274980330D401900FE29A3DC0124AD016E0A1440CDB279E78020C003064207D0054205D128434602760AB7
:400F80004446FF256DE706437602760AFF2568E70124611A1B2905DD14400025002660E76346CBE72E002023CE40591A8D406B1E9D412E43730704D00F233340042B00D0EB
:400FC0000436730104D5012401251440002648E70124B601760A1440002542E780260124F6032E437602760A1440FF2539E7C046701D0000FFFFFFF74302590A4300C20F70
:401000001B0E00207E2B0EDD9D2B0DDC802000040143952B0BDC9620C31AD9400B005842002A00D118007047034BD018FBE7963B99400B00F3E7C046FFFFFF7F70B5002802
:4010400030D0C317C5185D40C40F280000F03EF89E231B1A962B0DDC9622D21A95406A02520AD8B25202C005520AE40702432243100070BD992B19DC9922D21A9540124AB8
:401080002A40690704D00F210D40042D00D00432510103D50C4B1A409F231B1A9201520AD8B2DFE7002400200022DBE705222E00121AB921D6402A00C91A8A40551EAA41EF
:4010C00035001543DBE7C046FFFFFFFB1C2101231B04984201D3000C10391B0A984201D3000A08391B09984201D30009043902A2105C40187047C0460403020201010101B6
:401100000000000000000000014B18687047C046400100200E4B70B500251E000D4CE41AA410A54204D0AB00F35898470135F8E700F05AFE084B00251E00084CE41AA41070
:40114000A54204D0AB00F35898470135F8E770BDF41D0000F41D0000F41D0000FC1D0000002310B59A4203D0CC5CC4540133F9E710BD03008218934202D019700133FAE7B7
:40118000704700000EB410B59DB002A9029008610B48822488604861012040421FABC881084804CBA400006801938C8100F06EF80023029A13701DB010BC08BC03B01847EB
:4011C000FFFFFF7F40010020F0B58E6885B007000C00039201939E4243D890238A89DB001A423ED003250969236801985B1A029363695D43EB0F5D19029B6D1001331B18DB
:40120000AB4200D91D00530510D52900380000F037FB061E14D0029A2169FFF7A1FFA289194B134080221343A38112E02A00380000F086FB061E0CD12169380000F0D4FA03
:401240000C23402201203B60A38940421343A38117E0029B2661F61826606561019EED1AA560019BB34200D21E0032000399206800F0A5FA0020A3689B1BA36023689E194D
:40128000266005B0F0BDC0467FFBFFFFF0B59FB0029005938B890F0016001B0610D50B69002B0DD1402100F0EBFA38603861002804D10C23029A01381360D8E040237B611C
:4012C000002306AD6B6120336B761033AB7634002378002B03D1A31B049312D003E0252BF9D00134F4E7A31B320039000298FFF76BFF431C00D1B4E06A69049B94466344C9
:401300006B612378002B00D1ABE00122002352426A6002A95432521801342B60EB60AB601370AB65534E21780522300000F03CFA002807D00123801B83402A680134134382
:401340002B60EFE72B68DA0604D55322202102A8121811701A0704D553222B2102A81218117022782A2A03D0099B00200A210EE0059A111D12680591002A01DB099204E0A5
:401380005242EA60022213432B6001340BE02278303A092A04D84B4301349B180120F6E7002800D0099323782E2B1ED163782A2B0AD1059B02341A1D1B680592002B01DAF4
:4013C00001235B42079310E000230A201A0001346B6021783039092904D84243013452180123F6E7002B00D00792234E21780322300000F0D9F9002806D04023801B834092
:401400002A68013413432B60217806221B48661C297600F0C9F9002812D0194B002B06D10722059B073393430833059314E005AB00933A00134B2900029800E000BF07E0D9
:4014400005AB00933A000F4B2900029800F08AF80390039B013304D06B69039A9B186B6135E7BB890B985B0601D5012040421FB0F0BDC046B21D0000B81D0000BC1D00005B
:4014800000000000C9110000F7B5170001938A680B6900900C00934200DA130022003B6043321278002A01D001333B6023689B0602D53B6802333B60062523681D401ED03A
:4014C000230043331B785A1E9341226892061CD53020E1184331087021005A1C45310978A2184332023311700FE022000123193201990098089EB047431C0ED00135E368AC
:401500003A689B1A9D42F0DBDAE72200019943320098089DA847431C02D10120404220E006232068E1683A6803400025042B03D18D1AEB43DB171D40A3682269934201DD43
:401540009B1AED180027BD420AD0220001231A3201990098089EB047431CDED00137F2E70020FEBDF0B58BB006920A0043320793059004920A7E0C00109B6E2A00D1ABE068
:4015800011D8632A22D009D8002A00D1B5E0582A00D0C5E045310A70814A4FE0642A1DD0692A1BD0BCE0732A00D1AAE009D86F2A29D0702A00D0B3E0202209680A432260F2
:4015C00037E0752A1FD0782A33D0A9E00E001A684236111D196013683370A4E021681A68080606D4490604D5111D19600023D55E02E0111D19601568002D3BDA2D23049A79
:401600006D42137036E021681A68080606D4490604D51568111D1960ADB202E0111D196015685F4B227E039308276F2A1DD00A271BE022007821453211705A4A1968039290
:40164000081D226818600D68100602D4500600D5ADB2D30702D520231A4322601027002D03D1202322689A4322602300002243331A7002E00A274A4B03936368A360002BA5
:4016800009DB0422216891432160002D05D1049E002B11D07BE0002D79D0049E28003900FFF776FA039B013E5B5C280033703900FFF7E8F9051EF1D1082F09D12368DB0785
:4016C00006D563682269934202DC3023013E3370049B9B1B23612BE009681A68080607D4490605D5111D19601368A28A1A8004E0111D1960136862691A600023049E23616C
:4017000016E01A68111D1960166800216268300000F04AF8002801D0801B6060636803E0260042363270012323610023049A1370079B09AA00932100069B0598FFF7A4FEB2
:40174000431C02D10120404227E02369320006990598079DA847431CF4D0236800259B070FD4099BE068984217DA180015E022000123193206990598079EB047431CE1D06B
:401780000135E368099A9B1A9D42F0DBE9E72600039B42361B7833708EE70BB0F0BDC046C31D0000D41D0000C9B28218904204D003788B4202D00130F8E70020704710B52F
:4017C000884202D98B18984201D3002305E09B1A013A08D3995C8154FAE7934203D0CC5CC4540133F9E710BD70B50500002944D00C1F2368002B00DAE418280000F0D8F8A6
:401800001E4A13681100002B02D16360146031E0A3420DD92268A018834203D118685B688218226063600C6024E0A24203D813005A68002AF9D11E689819A0420BD1216830
:40184000711858181960824214D110685268411819605A600EE0A04202D90C232B6009E021686018824203D1106852684118216062605C60280000F09CF870BD8C01002098
:40188000032370B5CD1C9D43083506000C2D01D20C2501E0002D01DBA94202D90C23336048E0300000F084F8234B1C681A002100002913D00B685B1B0DD40B2B02D90B60DF
:4018C000CC181EE08C4202D1636813601AE04B6863600C0016E00C004968E9E7174C2368002B03D1300000F051F820602900300000F04CF8431C18D00323C41C9C43A042B7
:401900000DD12560300000F054F8200007220B30231D9043C31A0ED05A42E2500BE0211A300000F033F8431CEBD10C233000336000F03FF8002070BD8C0100208801002070
:40194000F8B506000C001500002904D11100FFF797FF040018E0002A03D1FFF745FF2C0012E000F027F885420ED929003000FFF787FF071E07D021002A00FFF7F1FB2100CA
:401980003000FFF731FF3C002000F8BD002370B5064C050008002360FEF7D0FC431C03D12368002B00D02B6070BDC04698010020704770470B1F1A68101F002A04DA8918B3
:4019C00004390B68D018043870470000000000004469676974616C3D256420566F6C7473203D202564200A0D0000000000300F40800000310F40000300400F40000400004E
:401A000080300F40401C00008000000080388172820F0202040812011E04260129012E02300132083301340236043E153F045418580459045B045F01000802800498050114
:401A400009020B010D280E020F40102216141702180419881B011D2A1E011F28231026A7270829202D802F28362A3EAA452247484C244E0854025A015E08600463026E14DE
:401A80006F01763E77028710C0FCC2F9C475CA74CCE0CEF0D0F0D220D641D80C001301010204030A040A05130614081309130A0C0C400E2011101208142016C018E0190266
:401AC0001B091C031E14261528802A202B042CE03010310C32E03303340F35103A203E013F014036410146B047CE483849FF4AFF4BFF4EF04F44500C5401580459045A042C
:401B00005B045F0166C06A406B028414858087138A038C0C8E718F0C900992D094DC952C9622974399719B069F08A010A171A240A30EA410A6ACAA20B0E0B1C0B30FB41FE8
:401B4000B530B922BA02BB08BF10C002C604C9FFCA07CBFFCC40CD20CEF0CF05D008D804D904DA04DF01E040E1A8E240E3200040012002100480051509080B400E240F42D0
:401B80001090120815881710184019211C101D101E601F042004210823402408275029012A022F043090311C371139083B403E143F014004441046024E08508051045208E7
:401BC0005404561057015D185E405F028040828083018404870289108B01918092149498970199089B019D209E809F50A404B220B340B541B610B710C0F7C2FCC4EECA215B
:401C0000CCAECEEAD054D220D6F067808740D880E2100E108210C220E08010011101000003000F4013300F4032310F4069320F404E330F4004400F4004410F4002600F4061
:401C4000821000000008F300C318000041040000FF3C00420F00F003F37F0C001C00E300080000000C670018043C0041000000041C1F2C200F00C04000802822000000043F
:401C800026030400010C00E021FFFFFF62A0F0410C0000000000021204040404000000010000000000004002001030100010101200000000000000000000000000000000C4
:401CC000030405060708090A0B0C0E0F101112131415161718191B1C1D1E1F2021222325262728292A2B2E2F3031323334350000EE0C0000120C0000D00C0000A80C00004C
:401D0000D00C00009C0C0000D00C0000A80C0000120C0000120C00009C0C0000A80C0000540D0000540D0000540D0000D60C0000120C0000120C0000BC0C0000A60C00003C
:401D4000BC0C00009C0C0000BC0C0000A60C0000120C0000120C00009C0C0000A60C0000540D0000540D0000540D0000600D0000EC0E00004A0E00004A0E0000480E000053
:401D8000DE0E0000DE0E0000D40E0000480E0000DE0E0000D40E0000DE0E0000480E0000E40E0000E40E0000E40E00006E0F00004300232D302B2000686C4C00656667450B
:401DC00046470030313233343536373839414243444546003031323334353637383961626364656600000000F8B5C046F8BC08BC9E46704725020000B5030000F8B5C046FA
:401E0000F8BC08BC9E467047FD010000201E0000C000002088000000580000000000000000000000A0010020010000000000E02EC05D00001800000000366E0104040400DD
:401E40000000000000000000000000000000000000000000000000000000000000000000B01D00000000000000000000000000000000000000000000000000000000000095
:401E80000000000000000000000000000000000000000000000000000000000000000000E00000200000000000000000000000000000000000000000000000000000000022
:401EC00000000000000000000000000000000000000000000000000000000000000000000000000000000000000000000000000000000000000000000000000000000000E2
:401F000000000000000000000000000000000000000000000000000000000000000000000000000000000000000000000000000000000000000000000000000000000000A1
:401F40000000000000000000000000000000000000000000000000000000000000000000000000000000000000000000000000000000000000000000000000000000000061
:401F80000000000000000000000000000000000000000000000000000000000000000000000000000000000000000000000000000000000000000000000000000000000021
:0200000490303A
:020000006D7B16
:0200000490402A
:200000000000000000000000000000000000000000000000000000000000000000000000E0
:0200000490501A
:0C000000000204C81193110104D17F0E0E
:0200000490600A
:0100000001FE
:00000001FF